{
  "_format": "hh-sol-artifact-1",
  "contractName": "Lexicon",
  "sourceName": "contracts/Lexicon.sol",
  "abi": [
    {
      "anonymous": false,
      "inputs": [
        {
          "indexed": false,
          "internalType": "string",
          "name": "word",
          "type": "string"
        },
        {
          "indexed": true,
          "internalType": "address",
          "name": "by",
          "type": "address"
        }
      ],
      "name": "WordAdded",
      "type": "event"
    },
    {
      "inputs": [
        {
          "internalType": "string",
          "name": "_word",
          "type": "string"
        }
      ],
      "name": "addWordToLexicon",
      "outputs": [],
      "stateMutability": "nonpayable",
      "type": "function"
    },
    {
      "inputs": [],
      "name": "getWordCount",
      "outputs": [
        {
          "internalType": "uint256",
          "name": "",
          "type": "uint256"
        }
      ],
      "stateMutability": "view",
      "type": "function"
    },
    {
      "inputs": [
        {
          "internalType": "uint256",
          "name": "",
          "type": "uint256"
        }
      ],
      "name": "words",
      "outputs": [
        {
          "internalType": "string",
          "name": "",
          "type": "string"
        }
      ],
      "stateMutability": "view",
      "type": "function"
    }
  ],
  "bytecode": "0x608060405234801561001057600080fd5b506107d3806100206000396000f3fe608060405234801561001057600080fd5b50600436106100415760003560e01c80630ce5a09814610046578063884fc83814610064578063fc453ede14610094575b600080fd5b61004e6100b0565b60405161005b9190610207565b60405180910390f35b61007e60048036038101906100799190610262565b6100bc565b60405161008b919061031f565b60405180910390f35b6100ae60048036038101906100a99190610476565b610168565b005b60008080549050905090565b600081815481106100cc57600080fd5b9060005260206000200160009150905080546100e7906104ee565b80601f0160208091040260200160405190810160405280929190818152602001828054610113906104ee565b80156101605780601f1061013557610100808354040283529160200191610160565b820191906000526020600020905b81548152906001019060200180831161014357829003601f168201915b505050505081565b60008190806001815401808255809150506001900390600052602060002001600090919091909150908161019c91906106cb565b503373ffffffffffffffffffffffffffffffffffffffff167f65d4456571c013fe8c24a510a7ffcb5e6a445cdb13dcb0be98bf960c6336db82826040516101e3919061031f565b60405180910390a250565b6000819050919050565b610201816101ee565b82525050565b600060208201905061021c60008301846101f8565b92915050565b6000604051905090565b600080fd5b600080fd5b61023f816101ee565b811461024a57600080fd5b50565b60008135905061025c81610236565b92915050565b6000602082840312156102785761027761022c565b5b60006102868482850161024d565b91505092915050565b600081519050919050565b600082825260208201905092915050565b60005b838110156102c95780820151818401526020810190506102ae565b60008484015250505050565b6000601f19601f8301169050919050565b60006102f18261028f565b6102fb818561029a565b935061030b8185602086016102ab565b610314816102d5565b840191505092915050565b6000602082019050818103600083015261033981846102e6565b905092915050565b600080fd5b600080fd5b7f4e487b7100000000000000000000000000000000000000000000000000000000600052604160045260246000fd5b610383826102d5565b810181811067ffffffffffffffff821117156103a2576103a161034b565b5b80604052505050565b60006103b5610222565b90506103c1828261037a565b919050565b600067ffffffffffffffff8211156103e1576103e061034b565b5b6103ea826102d5565b9050602081019050919050565b82818337600083830152505050565b6000610419610414846103c6565b6103ab565b90508281526020810184848401111561043557610434610346565b5b6104408482856103f7565b509392505050565b600082601f83011261045d5761045c610341565b5b813561046d848260208601610406565b91505092915050565b60006020828403121561048c5761048b61022c565b5b600082013567ffffffffffffffff8111156104aa576104a9610231565b5b6104b684828501610448565b91505092915050565b7f4e487b7100000000000000000000000000000000000000000000000000000000600052602260045260246000fd5b6000600282049050600182168061050657607f821691505b602082108103610519576105186104bf565b5b50919050565b60008190508160005260206000209050919050565b60006020601f8301049050919050565b600082821b905092915050565b6000600883026105817fffffffffffffffffffffffffffffffffffffffffffffffffffffffffffffffff82610544565b61058b8683610544565b95508019841693508086168417925050509392505050565b6000819050919050565b60006105c86105c36105be846101ee565b6105a3565b6101ee565b9050919050565b6000819050919050565b6105e2836105ad565b6105f66105ee826105cf565b848454610551565b825550505050565b600090565b61060b6105fe565b6106168184846105d9565b505050565b5b8181101561063a5761062f600082610603565b60018101905061061c565b5050565b601f82111561067f576106508161051f565b61065984610534565b81016020851015610668578190505b61067c61067485610534565b83018261061b565b50505b505050565b600082821c905092915050565b60006106a260001984600802610684565b1980831691505092915050565b60006106bb8383610691565b9150826002028217905092915050565b6106d48261028f565b67ffffffffffffffff8111156106ed576106ec61034b565b5b6106f782546104ee565b61070282828561063e565b600060209050601f8311600181146107355760008415610723578287015190505b61072d85826106af565b865550610795565b601f1984166107438661051f565b60005b8281101561076b57848901518255600182019150602085019450602081019050610746565b868310156107885784890151610784601f891682610691565b8355505b6001600288020188555050505b50505050505056fea264697066735822122022261a571767aeff286e2b319ef33a1367228614d70d61373146768053b6440864736f6c63430008140033",
  "linkReferences": {},
  "deployedLinkReferences": {}
}