{
  "_format": "hh-sol-artifact-1",
  "contractName": "AlfaSwap",
  "sourceName": "contracts/AlfaSwap.sol",
  "abi": [
    {
      "inputs": [
        {
          "internalType": "address",
          "name": "_lauCoin",
          "type": "address"
        }
      ],
      "stateMutability": "nonpayable",
      "type": "constructor"
    },
    {
      "inputs": [
        {
          "internalType": "address",
          "name": "token",
          "type": "address"
        }
      ],
      "name": "SafeERC20FailedOperation",
      "type": "error"
    },
    {
      "anonymous": false,
      "inputs": [
        {
          "indexed": true,
          "internalType": "address",
          "name": "user",
          "type": "address"
        },
        {
          "indexed": false,
          "internalType": "uint256",
          "name": "alfaAmount",
          "type": "uint256"
        },
        {
          "indexed": false,
          "internalType": "uint256",
          "name": "lauAmount",
          "type": "uint256"
        }
      ],
      "name": "Swap",
      "type": "event"
    },
    {
      "inputs": [],
      "name": "lauCoin",
      "outputs": [
        {
          "internalType": "contract IERC20",
          "name": "",
          "type": "address"
        }
      ],
      "stateMutability": "view",
      "type": "function"
    },
    {
      "inputs": [],
      "name": "rate",
      "outputs": [
        {
          "internalType": "uint256",
          "name": "",
          "type": "uint256"
        }
      ],
      "stateMutability": "view",
      "type": "function"
    },
    {
      "inputs": [],
      "name": "swapAlfaForLau",
      "outputs": [],
      "stateMutability": "payable",
      "type": "function"
    },
    {
      "inputs": [],
      "name": "withdraw",
      "outputs": [],
      "stateMutability": "nonpayable",
      "type": "function"
    }
  ],
  "bytecode": "0x60806040526103e860015534801561001657600080fd5b506040516107b13803806107b1833981810160405281019061003891906100e1565b806000806101000a81548173ffffffffffffffffffffffffffffffffffffffff021916908373ffffffffffffffffffffffffffffffffffffffff1602179055505061010e565b600080fd5b600073ffffffffffffffffffffffffffffffffffffffff82169050919050565b60006100ae82610083565b9050919050565b6100be816100a3565b81146100c957600080fd5b50565b6000815190506100db816100b5565b92915050565b6000602082840312156100f7576100f661007e565b5b6000610105848285016100cc565b91505092915050565b6106948061011d6000396000f3fe60806040526004361061003f5760003560e01c80630d2088931461004457806321ff8d951461004e5780632c4e722e146100795780633ccfd60b146100a4575b600080fd5b61004c6100bb565b005b34801561005a57600080fd5b5061006361028a565b60405161007091906103f2565b60405180910390f35b34801561008557600080fd5b5061008e6102ae565b60405161009b9190610426565b60405180910390f35b3480156100b057600080fd5b506100b96102b4565b005b600034116100fe576040517f08c379a00000000000000000000000000000000000000000000000000000000081526004016100f59061049e565b60405180910390fd5b60006001543461010e91906104ed565b90508060008054906101000a900473ffffffffffffffffffffffffffffffffffffffff1673ffffffffffffffffffffffffffffffffffffffff166370a08231306040518263ffffffff1660e01b815260040161016a9190610550565b602060405180830381865afa158015610187573d6000803e3d6000fd5b505050506040513d601f19601f820116820180604052508101906101ab919061059c565b10156101ec576040517f08c379a00000000000000000000000000000000000000000000000000000000081526004016101e390610615565b60405180910390fd5b610237338260008054906101000a900473ffffffffffffffffffffffffffffffffffffffff1673ffffffffffffffffffffffffffffffffffffffff166102b69092919063ffffffff16565b3373ffffffffffffffffffffffffffffffffffffffff167f77f92a1b6a1a11de8ca49515ad4c1fad45632dd3442167d74b90b304a3c7a758348360405161027f929190610635565b60405180910390a250565b60008054906101000a900473ffffffffffffffffffffffffffffffffffffffff1681565b60015481565b565b6102c38383836001610309565b61030457826040517f5274afe70000000000000000000000000000000000000000000000000000000081526004016102fb9190610550565b60405180910390fd5b505050565b60008063a9059cbb60e01b90506040518160005260001960601c8616600452846024526020600060446000808b5af192506001600051148316610365578383151615610358573d6000823e3d81fd5b6000873b113d1516831692505b806040525050949350505050565b600073ffffffffffffffffffffffffffffffffffffffff82169050919050565b6000819050919050565b60006103b86103b36103ae84610373565b610393565b610373565b9050919050565b60006103ca8261039d565b9050919050565b60006103dc826103bf565b9050919050565b6103ec816103d1565b82525050565b600060208201905061040760008301846103e3565b92915050565b6000819050919050565b6104208161040d565b82525050565b600060208201905061043b6000830184610417565b92915050565b600082825260208201905092915050565b7f4d7573742073656e6420414c4641202845544829000000000000000000000000600082015250565b6000610488601483610441565b915061049382610452565b602082019050919050565b600060208201905081810360008301526104b78161047b565b9050919050565b7f4e487b7100000000000000000000000000000000000000000000000000000000600052601160045260246000fd5b60006104f88261040d565b91506105038361040d565b92508282026105118161040d565b91508282048414831517610528576105276104be565b5b5092915050565b600061053a82610373565b9050919050565b61054a8161052f565b82525050565b60006020820190506105656000830184610541565b92915050565b600080fd5b6105798161040d565b811461058457600080fd5b50565b60008151905061059681610570565b92915050565b6000602082840312156105b2576105b161056b565b5b60006105c084828501610587565b91505092915050565b7f4e6f7420656e6f756768204c415520696e207265736572766500000000000000600082015250565b60006105ff601983610441565b915061060a826105c9565b602082019050919050565b6000602082019050818103600083015261062e816105f2565b9050919050565b600060408201905061064a6000830185610417565b6106576020830184610417565b939250505056fea2646970667358221220178fdf4f2dd89966495998d7638c4cedc162b5823a5bf6d091b96bd9787760b864736f6c63430008140033",
  "linkReferences": {},
  "deployedLinkReferences": {}
}